{
  "contractName": "CertificateVerification",
  "abi": [
    {
      "inputs": [],
      "stateMutability": "nonpayable",
      "type": "constructor"
    },
    {
      "inputs": [
        {
          "internalType": "string",
          "name": "certificateId",
          "type": "string"
        }
      ],
      "name": "CertificateAlreadyExists",
      "type": "error"
    },
    {
      "inputs": [
        {
          "internalType": "string",
          "name": "certificateId",
          "type": "string"
        }
      ],
      "name": "CertificateAlreadyRevoked",
      "type": "error"
    },
    {
      "inputs": [
        {
          "internalType": "string",
          "name": "certificateId",
          "type": "string"
        }
      ],
      "name": "CertificateDoesNotExist",
      "type": "error"
    },
    {
      "inputs": [],
      "name": "InvalidAddress",
      "type": "error"
    },
    {
      "inputs": [
        {
          "internalType": "address",
          "name": "issuer",
          "type": "address"
        }
      ],
      "name": "IssuerAlreadyAuthorized",
      "type": "error"
    },
    {
      "inputs": [
        {
          "internalType": "address",
          "name": "issuer",
          "type": "address"
        }
      ],
      "name": "IssuerNotAuthorized",
      "type": "error"
    },
    {
      "inputs": [],
      "name": "OnlyIssuer",
      "type": "error"
    },
    {
      "inputs": [],
      "name": "OnlyOwner",
      "type": "error"
    },
    {
      "anonymous": false,
      "inputs": [
        {
          "indexed": true,
          "internalType": "string",
          "name": "certificateId",
          "type": "string"
        },
        {
          "indexed": false,
          "internalType": "bytes32",
          "name": "dataHash",
          "type": "bytes32"
        },
        {
          "indexed": false,
          "internalType": "uint256",
          "name": "timestamp",
          "type": "uint256"
        },
        {
          "indexed": true,
          "internalType": "address",
          "name": "issuer",
          "type": "address"
        }
      ],
      "name": "CertificateIssued",
      "type": "event"
    },
    {
      "anonymous": false,
      "inputs": [
        {
          "indexed": true,
          "internalType": "string",
          "name": "certificateId",
          "type": "string"
        },
        {
          "indexed": false,
          "internalType": "uint256",
          "name": "timestamp",
          "type": "uint256"
        }
      ],
      "name": "CertificateRevoked",
      "type": "event"
    },
    {
      "anonymous": false,
      "inputs": [
        {
          "indexed": true,
          "internalType": "address",
          "name": "issuer",
          "type": "address"
        }
      ],
      "name": "IssuerAuthorized",
      "type": "event"
    },
    {
      "anonymous": false,
      "inputs": [
        {
          "indexed": true,
          "internalType": "address",
          "name": "issuer",
          "type": "address"
        }
      ],
      "name": "IssuerRevoked",
      "type": "event"
    },
    {
      "anonymous": false,
      "inputs": [
        {
          "indexed": true,
          "internalType": "address",
          "name": "previousOwner",
          "type": "address"
        },
        {
          "indexed": true,
          "internalType": "address",
          "name": "newOwner",
          "type": "address"
        }
      ],
      "name": "OwnershipTransferred",
      "type": "event"
    },
    {
      "inputs": [
        {
          "internalType": "address",
          "name": "",
          "type": "address"
        }
      ],
      "name": "authorizedIssuers",
      "outputs": [
        {
          "internalType": "bool",
          "name": "",
          "type": "bool"
        }
      ],
      "stateMutability": "view",
      "type": "function",
      "constant": true
    },
    {
      "inputs": [],
      "name": "owner",
      "outputs": [
        {
          "internalType": "address",
          "name": "",
          "type": "address"
        }
      ],
      "stateMutability": "view",
      "type": "function",
      "constant": true
    },
    {
      "inputs": [],
      "name": "totalCertificates",
      "outputs": [
        {
          "internalType": "uint256",
          "name": "",
          "type": "uint256"
        }
      ],
      "stateMutability": "view",
      "type": "function",
      "constant": true
    },
    {
      "inputs": [
        {
          "internalType": "address",
          "name": "_issuer",
          "type": "address"
        }
      ],
      "name": "authorizeIssuer",
      "outputs": [],
      "stateMutability": "nonpayable",
      "type": "function"
    },
    {
      "inputs": [
        {
          "internalType": "address",
          "name": "_issuer",
          "type": "address"
        }
      ],
      "name": "revokeIssuer",
      "outputs": [],
      "stateMutability": "nonpayable",
      "type": "function"
    },
    {
      "inputs": [
        {
          "internalType": "string",
          "name": "_certificateId",
          "type": "string"
        },
        {
          "internalType": "bytes32",
          "name": "_dataHash",
          "type": "bytes32"
        }
      ],
      "name": "issueCertificate",
      "outputs": [],
      "stateMutability": "nonpayable",
      "type": "function"
    },
    {
      "inputs": [
        {
          "internalType": "string",
          "name": "_certificateId",
          "type": "string"
        }
      ],
      "name": "revokeCertificate",
      "outputs": [],
      "stateMutability": "nonpayable",
      "type": "function"
    },
    {
      "inputs": [
        {
          "internalType": "string",
          "name": "_certificateId",
          "type": "string"
        },
        {
          "internalType": "bytes32",
          "name": "_dataHash",
          "type": "bytes32"
        }
      ],
      "name": "verifyCertificate",
      "outputs": [
        {
          "internalType": "bool",
          "name": "exists",
          "type": "bool"
        },
        {
          "internalType": "bool",
          "name": "isValid",
          "type": "bool"
        },
        {
          "internalType": "uint256",
          "name": "issuedAt",
          "type": "uint256"
        },
        {
          "internalType": "address",
          "name": "issuer",
          "type": "address"
        }
      ],
      "stateMutability": "view",
      "type": "function",
      "constant": true
    },
    {
      "inputs": [
        {
          "internalType": "string",
          "name": "_certificateId",
          "type": "string"
        }
      ],
      "name": "quickVerify",
      "outputs": [
        {
          "internalType": "bool",
          "name": "isValid",
          "type": "bool"
        }
      ],
      "stateMutability": "view",
      "type": "function",
      "constant": true
    },
    {
      "inputs": [
        {
          "internalType": "string",
          "name": "_certificateId",
          "type": "string"
        }
      ],
      "name": "getCertificateStatus",
      "outputs": [
        {
          "internalType": "bool",
          "name": "exists",
          "type": "bool"
        },
        {
          "internalType": "bytes32",
          "name": "dataHash",
          "type": "bytes32"
        },
        {
          "internalType": "bool",
          "name": "isRevoked",
          "type": "bool"
        },
        {
          "internalType": "uint256",
          "name": "issuedAt",
          "type": "uint256"
        },
        {
          "internalType": "uint256",
          "name": "revokedAt",
          "type": "uint256"
        },
        {
          "internalType": "address",
          "name": "issuer",
          "type": "address"
        }
      ],
      "stateMutability": "view",
      "type": "function",
      "constant": true
    },
    {
      "inputs": [
        {
          "internalType": "string",
          "name": "_certificateId",
          "type": "string"
        }
      ],
      "name": "certificateExists",
      "outputs": [
        {
          "internalType": "bool",
          "name": "",
          "type": "bool"
        }
      ],
      "stateMutability": "view",
      "type": "function",
      "constant": true
    },
    {
      "inputs": [],
      "name": "getTotalCertificates",
      "outputs": [
        {
          "internalType": "uint256",
          "name": "",
          "type": "uint256"
        }
      ],
      "stateMutability": "view",
      "type": "function",
      "constant": true
    },
    {
      "inputs": [
        {
          "internalType": "address",
          "name": "newOwner",
          "type": "address"
        }
      ],
      "name": "transferOwnership",
      "outputs": [],
      "stateMutability": "nonpayable",
      "type": "function"
    }
  ],
  "bytecode": "0x608060405234801561000f575f80fd5b50335f806101000a81548173ffffffffffffffffffffffffffffffffffffffff021916908373ffffffffffffffffffffffffffffffffffffffff1602179055506116b48061005c5f395ff3fe608060405234801561000f575f80fd5b50600436106100cc575f3560e01c8063596b772f1161008a5780638da5cb5b116100645780638da5cb5b1461020f578063ecdced6c1461022d578063f2fde38b14610262578063f731fa0f1461027e576100cc565b8063596b772f146101b757806362c985c3146101d55780637843bb79146101f1576100cc565b8062629679146100d05780630655f037146100ec57806307b86b731461011c578063142e15421461014f5780633f9e6ca21461016b578063436693d51461019b575b5f80fd5b6100ea60048036038101906100e591906110b1565b6102ae565b005b61010660048036038101906101019190611218565b6104bc565b6040516101139190611279565b60405180910390f35b610136600480360381019061013191906112c5565b6104e8565b6040516101469493929190611346565b60405180910390f35b61016960048036038101906101649190611218565b6105f3565b005b61018560048036038101906101809190611218565b6107a9565b6040516101929190611279565b60405180910390f35b6101b560048036038101906101b091906110b1565b61087f565b005b6101bf610a8f565b6040516101cc9190611389565b60405180910390f35b6101ef60048036038101906101ea91906112c5565b610a95565b005b6101f9610d63565b6040516102069190611389565b60405180910390f35b610217610d6c565b60405161022491906113a2565b60405180910390f35b61024760048036038101906102429190611218565b610d8f565b604051610259969594939291906113ca565b60405180910390f35b61027c600480360381019061027791906110b1565b610e85565b005b610298600480360381019061029391906110b1565b611029565b6040516102a59190611279565b60405180910390f35b5f8054906101000a900473ffffffffffffffffffffffffffffffffffffffff1673ffffffffffffffffffffffffffffffffffffffff163373ffffffffffffffffffffffffffffffffffffffff1614610332576040517f5fc483c500000000000000000000000000000000000000000000000000000000815260040160405180910390fd5b5f73ffffffffffffffffffffffffffffffffffffffff168173ffffffffffffffffffffffffffffffffffffffff1603610397576040517fe6c4247b00000000000000000000000000000000000000000000000000000000815260040160405180910390fd5b60025f8273ffffffffffffffffffffffffffffffffffffffff1673ffffffffffffffffffffffffffffffffffffffff1681526020019081526020015f205f9054906101000a900460ff1661042257806040517f510e20cd00000000000000000000000000000000000000000000000000000000815260040161041991906113a2565b60405180910390fd5b5f60025f8373ffffffffffffffffffffffffffffffffffffffff1673ffffffffffffffffffffffffffffffffffffffff1681526020019081526020015f205f6101000a81548160ff0219169083151502179055508073ffffffffffffffffffffffffffffffffffffffff167f95a4c2ae425bb769549aa1a911911ff57c17ae811ae8c8962d0b9746fcb1539760405160405180910390a250565b5f806001836040516104ce9190611495565b908152602001604051809103902060010154119050919050565b5f805f805f6001876040516104fd9190611495565b90815260200160405180910390206040518060a00160405290815f820154815260200160018201548152602001600282015f9054906101000a900460ff1615151515815260200160038201548152602001600482015f9054906101000a900473ffffffffffffffffffffffffffffffffffffffff1673ffffffffffffffffffffffffffffffffffffffff1673ffffffffffffffffffffffffffffffffffffffff168152505090505f8160200151119450846105c4575f805f809450945094509450506105ea565b85815f01511480156105d857508060400151155b93508060200151925080608001519150505b92959194509250565b5f8054906101000a900473ffffffffffffffffffffffffffffffffffffffff1673ffffffffffffffffffffffffffffffffffffffff163373ffffffffffffffffffffffffffffffffffffffff1614610677576040517f5fc483c500000000000000000000000000000000000000000000000000000000815260040160405180910390fd5b5f6001826040516106889190611495565b908152602001604051809103902090505f8160010154036106e057816040517f09a6dcc90000000000000000000000000000000000000000000000000000000081526004016106d791906114f3565b60405180910390fd5b806002015f9054906101000a900460ff161561073357816040517f73adcd7000000000000000000000000000000000000000000000000000000000815260040161072a91906114f3565b60405180910390fd5b6001816002015f6101000a81548160ff021916908315150217905550428160030181905550816040516107669190611495565b60405180910390207f57bf3aad622f3cf905e8c86d1e40e1de99f3ea3a1c14decf97a8671c24fbe5574260405161079d9190611389565b60405180910390a25050565b5f806001836040516107bb9190611495565b90815260200160405180910390206040518060a00160405290815f820154815260200160018201548152602001600282015f9054906101000a900460ff1615151515815260200160038201548152602001600482015f9054906101000a900473ffffffffffffffffffffffffffffffffffffffff1673ffffffffffffffffffffffffffffffffffffffff1673ffffffffffffffffffffffffffffffffffffffff168152505090505f816020015111801561087757508060400151155b915050919050565b5f8054906101000a900473ffffffffffffffffffffffffffffffffffffffff1673ffffffffffffffffffffffffffffffffffffffff163373ffffffffffffffffffffffffffffffffffffffff1614610903576040517f5fc483c500000000000000000000000000000000000000000000000000000000815260040160405180910390fd5b5f73ffffffffffffffffffffffffffffffffffffffff168173ffffffffffffffffffffffffffffffffffffffff1603610968576040517fe6c4247b00000000000000000000000000000000000000000000000000000000815260040160405180910390fd5b60025f8273ffffffffffffffffffffffffffffffffffffffff1673ffffffffffffffffffffffffffffffffffffffff1681526020019081526020015f205f9054906101000a900460ff16156109f457806040517f0ffd70440000000000000000000000000000000000000000000000000000000081526004016109eb91906113a2565b60405180910390fd5b600160025f8373ffffffffffffffffffffffffffffffffffffffff1673ffffffffffffffffffffffffffffffffffffffff1681526020019081526020015f205f6101000a81548160ff0219169083151502179055508073ffffffffffffffffffffffffffffffffffffffff167f8b4006ca14f23d4e7aa8d120d1ab7c3761d650eefac1a5d6732dbea94b54ea2460405160405180910390a250565b60035481565b60025f3373ffffffffffffffffffffffffffffffffffffffff1673ffffffffffffffffffffffffffffffffffffffff1681526020019081526020015f205f9054906101000a900460ff16610b15576040517f55b51ef100000000000000000000000000000000000000000000000000000000815260040160405180910390fd5b5f825103610b58576040517f08c379a0000000000000000000000000000000000000000000000000000000008152600401610b4f9061155d565b60405180910390fd5b5f801b8103610b9c576040517f08c379a0000000000000000000000000000000000000000000000000000000008152600401610b93906115c5565b60405180910390fd5b5f600183604051610bad9190611495565b90815260200160405180910390206001015414610c0157816040517fb32bb9c0000000000000000000000000000000000000000000000000000000008152600401610bf891906114f3565b60405180910390fd5b6040518060a001604052808281526020014281526020015f151581526020015f81526020013373ffffffffffffffffffffffffffffffffffffffff16815250600183604051610c509190611495565b90815260200160405180910390205f820151815f0155602082015181600101556040820151816002015f6101000a81548160ff021916908315150217905550606082015181600301556080820151816004015f6101000a81548173ffffffffffffffffffffffffffffffffffffffff021916908373ffffffffffffffffffffffffffffffffffffffff16021790555090505060035f815480929190610cf490611610565b91905055503373ffffffffffffffffffffffffffffffffffffffff1682604051610d1e9190611495565b60405180910390207f247456acd2fe0452d8426185bb3153c578b1ca649fb88154438cd16eedc5bfba8342604051610d57929190611657565b60405180910390a35050565b5f600354905090565b5f8054906101000a900473ffffffffffffffffffffffffffffffffffffffff1681565b5f805f805f805f600188604051610da69190611495565b90815260200160405180910390206040518060a00160405290815f820154815260200160018201548152602001600282015f9054906101000a900460ff1615151515815260200160038201548152602001600482015f9054906101000a900473ffffffffffffffffffffffffffffffffffffffff1673ffffffffffffffffffffffffffffffffffffffff1673ffffffffffffffffffffffffffffffffffffffff168152505090505f816020015111965086815f015182604001518360200151846060015185608001519650965096509650965096505091939550919395565b5f8054906101000a900473ffffffffffffffffffffffffffffffffffffffff1673ffffffffffffffffffffffffffffffffffffffff163373ffffffffffffffffffffffffffffffffffffffff1614610f09576040517f5fc483c500000000000000000000000000000000000000000000000000000000815260040160405180910390fd5b5f73ffffffffffffffffffffffffffffffffffffffff168173ffffffffffffffffffffffffffffffffffffffff1603610f6e576040517fe6c4247b00000000000000000000000000000000000000000000000000000000815260040160405180910390fd5b8073ffffffffffffffffffffffffffffffffffffffff165f8054906101000a900473ffffffffffffffffffffffffffffffffffffffff1673ffffffffffffffffffffffffffffffffffffffff167f8be0079c531659141344cd1fd0a4f28419497f9722a3daafe3b4186f6b6457e060405160405180910390a3805f806101000a81548173ffffffffffffffffffffffffffffffffffffffff021916908373ffffffffffffffffffffffffffffffffffffffff16021790555050565b6002602052805f5260405f205f915054906101000a900460ff1681565b5f604051905090565b5f80fd5b5f80fd5b5f73ffffffffffffffffffffffffffffffffffffffff82169050919050565b5f61108082611057565b9050919050565b61109081611076565b811461109a575f80fd5b50565b5f813590506110ab81611087565b92915050565b5f602082840312156110c6576110c561104f565b5b5f6110d38482850161109d565b91505092915050565b5f80fd5b5f80fd5b5f601f19601f8301169050919050565b7f4e487b71000000000000000000000000000000000000000000000000000000005f52604160045260245ffd5b61112a826110e4565b810181811067ffffffffffffffff82111715611149576111486110f4565b5b80604052505050565b5f61115b611046565b90506111678282611121565b919050565b5f67ffffffffffffffff821115611186576111856110f4565b5b61118f826110e4565b9050602081019050919050565b828183375f83830152505050565b5f6111bc6111b78461116c565b611152565b9050828152602081018484840111156111d8576111d76110e0565b5b6111e384828561119c565b509392505050565b5f82601f8301126111ff576111fe6110dc565b5b813561120f8482602086016111aa565b91505092915050565b5f6020828403121561122d5761122c61104f565b5b5f82013567ffffffffffffffff81111561124a57611249611053565b5b611256848285016111eb565b91505092915050565b5f8115159050919050565b6112738161125f565b82525050565b5f60208201905061128c5f83018461126a565b92915050565b5f819050919050565b6112a481611292565b81146112ae575f80fd5b50565b5f813590506112bf8161129b565b92915050565b5f80604083850312156112db576112da61104f565b5b5f83013567ffffffffffffffff8111156112f8576112f7611053565b5b611304858286016111eb565b9250506020611315858286016112b1565b9150509250929050565b5f819050919050565b6113318161131f565b82525050565b61134081611076565b82525050565b5f6080820190506113595f83018761126a565b611366602083018661126a565b6113736040830185611328565b6113806060830184611337565b95945050505050565b5f60208201905061139c5f830184611328565b92915050565b5f6020820190506113b55f830184611337565b92915050565b6113c481611292565b82525050565b5f60c0820190506113dd5f83018961126a565b6113ea60208301886113bb565b6113f7604083018761126a565b6114046060830186611328565b6114116080830185611328565b61141e60a0830184611337565b979650505050505050565b5f81519050919050565b5f81905092915050565b5f5b8381101561145a57808201518184015260208101905061143f565b5f8484015250505050565b5f61146f82611429565b6114798185611433565b935061148981856020860161143d565b80840191505092915050565b5f6114a08284611465565b915081905092915050565b5f82825260208201905092915050565b5f6114c582611429565b6114cf81856114ab565b93506114df81856020860161143d565b6114e8816110e4565b840191505092915050565b5f6020820190508181035f83015261150b81846114bb565b905092915050565b7f43657274696669636174652049442063616e6e6f7420626520656d70747900005f82015250565b5f611547601e836114ab565b915061155282611513565b602082019050919050565b5f6020820190508181035f8301526115748161153b565b9050919050565b7f4461746120686173682063616e6e6f7420626520656d707479000000000000005f82015250565b5f6115af6019836114ab565b91506115ba8261157b565b602082019050919050565b5f6020820190508181035f8301526115dc816115a3565b9050919050565b7f4e487b71000000000000000000000000000000000000000000000000000000005f52601160045260245ffd5b5f61161a8261131f565b91507fffffffffffffffffffffffffffffffffffffffffffffffffffffffffffffffff820361164c5761164b6115e3565b5b600182019050919050565b5f60408201905061166a5f8301856113bb565b6116776020830184611328565b939250505056fea2646970667358221220d33be19341890a6fd57ec7e006a51973a10dd45fa774e79a7583c13552a9106f64736f6c63430008150033",
  "immutableReferences": {},
  "source": "// SPDX-License-Identifier: MIT\npragma solidity ^0.8.20;\n\ncontract CertificateVerification {\n    // Custom errors for gas efficiency and clarity\n    error CertificateAlreadyExists(string certificateId);\n    error CertificateDoesNotExist(string certificateId);\n    error OnlyOwner();\n    error OnlyIssuer();\n    error InvalidAddress();\n    error CertificateAlreadyRevoked(string certificateId);\n    error IssuerAlreadyAuthorized(address issuer);\n    error IssuerNotAuthorized(address issuer);\n\n    // Certificate record - only hash stored on-chain\n    struct CertificateRecord {\n        bytes32 dataHash;           // keccak256 hash of certificate data\n        uint256 issuedAt;           // Timestamp\n        bool isRevoked;             // Revocation status\n        uint256 revokedAt;          // Revocation timestamp\n        address issuer;             // Address of the issuer\n    }\n\n    // Owner of the contract\n    address public owner;\n\n    // Mapping: certificateId => CertificateRecord\n    mapping(string => CertificateRecord) private certificates;\n\n    // Mapping: issuer address => authorized status\n    mapping(address => bool) public authorizedIssuers;\n\n    // Track total certificates\n    uint256 public totalCertificates;\n\n    // Events\n    event CertificateIssued(\n        string indexed certificateId,\n        bytes32 dataHash,\n        uint256 timestamp,\n        address indexed issuer\n    );\n\n    event CertificateRevoked(\n        string indexed certificateId,\n        uint256 timestamp\n    );\n\n    event IssuerAuthorized(address indexed issuer);\n    event IssuerRevoked(address indexed issuer);\n    event OwnershipTransferred(\n        address indexed previousOwner,\n        address indexed newOwner\n    );\n\n    // Modifiers\n    modifier onlyOwner() {\n        if (msg.sender != owner) revert OnlyOwner();\n        _;\n    }\n\n    modifier onlyIssuer() {\n        if (!authorizedIssuers[msg.sender]) revert OnlyIssuer();\n        _;\n    }\n\n    constructor() {\n        owner = msg.sender;\n    }\n\n    /**\n     * @dev Authorize an address to issue certificates\n     * @param _issuer Address to authorize\n     */\n    function authorizeIssuer(address _issuer) public onlyOwner {\n        if (_issuer == address(0)) revert InvalidAddress();\n        if (authorizedIssuers[_issuer]) revert IssuerAlreadyAuthorized(_issuer);\n        authorizedIssuers[_issuer] = true;\n        emit IssuerAuthorized(_issuer);\n    }\n\n    /**\n     * @dev Revoke authorization from an issuer\n     * @param _issuer Address to revoke\n     */\n    function revokeIssuer(address _issuer) public onlyOwner {\n        if (_issuer == address(0)) revert InvalidAddress();\n        if (!authorizedIssuers[_issuer]) revert IssuerNotAuthorized(_issuer);\n        authorizedIssuers[_issuer] = false;\n        emit IssuerRevoked(_issuer);\n    }\n\n    /**\n     * @dev Issue a certificate - stores only the keccak256 hash\n     * @param _certificateId Unique certificate ID\n     * @param _dataHash keccak256 hash of certificate data\n     */\n    function issueCertificate(\n        string memory _certificateId,\n        bytes32 _dataHash\n    ) public onlyIssuer {\n        if (bytes(_certificateId).length == 0) revert(\"Certificate ID cannot be empty\");\n        if (_dataHash == bytes32(0)) revert(\"Data hash cannot be empty\");\n        if (certificates[_certificateId].issuedAt != 0) revert CertificateAlreadyExists(_certificateId);\n\n        certificates[_certificateId] = CertificateRecord({\n            dataHash: _dataHash,\n            issuedAt: block.timestamp,\n            isRevoked: false,\n            revokedAt: 0,\n            issuer: msg.sender\n        });\n\n        totalCertificates++;\n        emit CertificateIssued(_certificateId, _dataHash, block.timestamp, msg.sender);\n    }\n\n    /**\n     * @dev Revoke a certificate (only owner)\n     * @param _certificateId ID of the certificate to revoke\n     */\n    function revokeCertificate(string memory _certificateId) public onlyOwner {\n        CertificateRecord storage cert = certificates[_certificateId];\n\n        if (cert.issuedAt == 0) revert CertificateDoesNotExist(_certificateId);\n        if (cert.isRevoked) revert CertificateAlreadyRevoked(_certificateId);\n\n        cert.isRevoked = true;\n        cert.revokedAt = block.timestamp;\n\n        emit CertificateRevoked(_certificateId, block.timestamp);\n    }\n\n    /**\n     * @dev Verify certificate by comparing hash\n     * @param _certificateId ID of the certificate\n     * @param _dataHash keccak256 hash to verify against\n     * @return exists Whether certificate exists on blockchain\n     * @return isValid Whether certificate is valid (hash matches AND not revoked)\n     * @return issuedAt Timestamp when issued\n     * @return issuer Address of the issuer\n     */\n    function verifyCertificate(\n        string memory _certificateId,\n        bytes32 _dataHash\n    ) public view returns (\n        bool exists,\n        bool isValid,\n        uint256 issuedAt,\n        address issuer\n    ) {\n        CertificateRecord memory cert = certificates[_certificateId];\n        exists = cert.issuedAt > 0;\n\n        if (!exists) {\n            return (false, false, 0, address(0));\n        }\n\n        isValid = (cert.dataHash == _dataHash) && !cert.isRevoked;\n        issuedAt = cert.issuedAt;\n        issuer = cert.issuer;\n    }\n\n    /**\n     * @dev Quick verify - only check if certificate is valid (exists and not revoked)\n     * @param _certificateId ID of the certificate\n     * @return isValid Whether certificate exists and is not revoked\n     */\n    function quickVerify(string memory _certificateId) public view returns (bool isValid) {\n        CertificateRecord memory cert = certificates[_certificateId];\n        return (cert.issuedAt > 0 && !cert.isRevoked);\n    }\n\n    /**\n     * @dev Get certificate status and hash\n     * @param _certificateId ID of the certificate\n     */\n    function getCertificateStatus(string memory _certificateId)\n        public\n        view\n        returns (\n            bool exists,\n            bytes32 dataHash,\n            bool isRevoked,\n            uint256 issuedAt,\n            uint256 revokedAt,\n            address issuer\n        )\n    {\n        CertificateRecord memory cert = certificates[_certificateId];\n        exists = cert.issuedAt > 0;\n        return (\n            exists,\n            cert.dataHash,\n            cert.isRevoked,\n            cert.issuedAt,\n            cert.revokedAt,\n            cert.issuer\n        );\n    }\n\n    /**\n     * @dev Check if certificate exists\n     * @param _certificateId ID of the certificate\n     */\n    function certificateExists(string memory _certificateId) public view returns (bool) {\n        return certificates[_certificateId].issuedAt > 0;\n    }\n\n    /**\n     * @dev Get total number of certificates issued\n     */\n    function getTotalCertificates() public view returns (uint256) {\n        return totalCertificates;\n    }\n\n    /**\n     * @dev Transfer ownership\n     * @param newOwner Address of new owner\n     */\n    function transferOwnership(address newOwner) public onlyOwner {\n        if (newOwner == address(0)) revert InvalidAddress();\n        emit OwnershipTransferred(owner, newOwner);\n        owner = newOwner;\n    }\n}\n",
  "sourcePath": "C:\\College\\SEM-7\\Project\\blockchain_certificate\\contract\\contracts\\CertificateVerification.sol",
  "compiler": {
    "name": "solc",
    "version": "0.8.21+commit.d9974bed.Emscripten.clang"
  },
  "schemaVersion": "3.4.16",
  "updatedAt": "2025-10-31T14:50:59.215Z",
  "networkType": "ethereum",
  "devdoc": {
    "kind": "dev",
    "methods": {
      "authorizeIssuer(address)": {
        "details": "Authorize an address to issue certificates",
        "params": {
          "_issuer": "Address to authorize"
        }
      },
      "certificateExists(string)": {
        "details": "Check if certificate exists",
        "params": {
          "_certificateId": "ID of the certificate"
        }
      },
      "getCertificateStatus(string)": {
        "details": "Get certificate status and hash",
        "params": {
          "_certificateId": "ID of the certificate"
        }
      },
      "getTotalCertificates()": {
        "details": "Get total number of certificates issued"
      },
      "issueCertificate(string,bytes32)": {
        "details": "Issue a certificate - stores only the keccak256 hash",
        "params": {
          "_certificateId": "Unique certificate ID",
          "_dataHash": "keccak256 hash of certificate data"
        }
      },
      "quickVerify(string)": {
        "details": "Quick verify - only check if certificate is valid (exists and not revoked)",
        "params": {
          "_certificateId": "ID of the certificate"
        },
        "returns": {
          "isValid": "Whether certificate exists and is not revoked"
        }
      },
      "revokeCertificate(string)": {
        "details": "Revoke a certificate (only owner)",
        "params": {
          "_certificateId": "ID of the certificate to revoke"
        }
      },
      "revokeIssuer(address)": {
        "details": "Revoke authorization from an issuer",
        "params": {
          "_issuer": "Address to revoke"
        }
      },
      "transferOwnership(address)": {
        "details": "Transfer ownership",
        "params": {
          "newOwner": "Address of new owner"
        }
      },
      "verifyCertificate(string,bytes32)": {
        "details": "Verify certificate by comparing hash",
        "params": {
          "_certificateId": "ID of the certificate",
          "_dataHash": "keccak256 hash to verify against"
        },
        "returns": {
          "exists": "Whether certificate exists on blockchain",
          "isValid": "Whether certificate is valid (hash matches AND not revoked)",
          "issuedAt": "Timestamp when issued",
          "issuer": "Address of the issuer"
        }
      }
    },
    "version": 1
  },
  "userdoc": {
    "kind": "user",
    "methods": {},
    "version": 1
  }
}